:1000000078FFE4B8200118F6D8F99000007F007E50
:1000100007E4F0A3DFFCDEFA75812002279290004E
:1000200002747EF07F03122E009001CDE060197FF4
:1000300001122D4B7F01122AEDEF600CE49001CDEF
:10004000F0A3F07F01122E0F2200000222F6EFD360
:100050009403500D121220F583E5822D1210CEE488
:10006000F0220002291175F002121B56E0FCA3E0F9
:10007000FD75F088EFA42434F582E5F03400F583B3
:10008000EE75F002021B56EF2448FFEE34FEFE7CB4
:10009000007D0A121A757D32121A87EF24B8FFEE1E
:1000A0003401FEEB75F002A42416F582E5F034006D
:1000B000F583229003C5E0FF9003C4E0FE75F0884D
:1000C000A42497F582E5F03400F583E5822FF582CC
:1000D000E43583F583229003C6E0FEA3E0FF90039E
:1000E000C4E0FD75F088A4246AF582E5F03400F5DB
:1000F0008322E0FCA3E0FDEF75F088A42446F5829E
:10010000E5F034002275F004121B56E0F8A3E0F984
:10011000A3E0FAA3E0FB90029FE0FCA3E0FDA3E0D4
:10012000FEA3E022FDEC541FF0EDA3F0EB75F0020E
:10013000A42410F582E5F03400F5832275F002EB7B
:10014000A4240AF582E5F03400F583E0FCA3E0FD89
:10015000EB75F002A42404F582E5F03400F5832267
:10016000F583E493FC740193FD75F002EFA422C3C0
:100170009DFFEE9CFEE075F088A42458F582E5F022
:100180003400F5832275F088A4247CF582E5F034F0
:1001900000F583EC75F002021B569003C4E0FF7576
:1001A000F088A42422F582E5F03400F58322C39B75
:1001B000FBEE9AFAED99F9EC98F8E493FE7401934A
:1001C000FFE4FCFDC3021B089003C4E0FF75F08848
:1001D000A42434F582E5F03400F58322F0A3F0A3E3
:1001E000F0A3F0A3F0A3F0A32224C0F582E5F0343D
:1001F00001F583ECF0A3EDF0EF25E02275F002EBC2
:10020000A4240AF582E5F03400F583229003C4E0CB
:10021000FD75F088A4247CF582E5F03400F5832296
:10022000EF75F009A424A3F582E4340222EF75F0FF
:1002300009A42418F582E43402229003C5E0FF905B
:1002400003C4E075F088A4248EF582E5F034002222
:10025000E4F075F088EEA424A0F582E5F0340022E5
:100260009003C8E0FDEF9D7480F86E98229003C45F
:10027000E0FFA3E0FD22F58375F002E0FCA3E0FDC2
:10028000EF2275F088EEA424A9F582E5F03400226F
:10029000E0FEA3E0FFD32274D32BF582E43401F512
:1002A000832274062BF582E43402F58322E0FF25D5
:1002B000E024B8F582E43403F58322EB25E024D66C
:1002C000F582E43422F58322E0248EF582E43400C2
:1002D000F583E0640122241CF582E5F03400F58307
:1002E000ECF0A3EDF00F22E4F0A3F075F0882225E6
:1002F000E024BEF582E43403F583229001C4E0FEDD
:10030000A3E0FFC390001BE09F90001AE09E22E054
:10031000FEA3E0C39D22EE8FF0121ADC75F088ED8B
:1003200022C3EF94F6EE6480947F22FE7C007D0A67
:10033000121A757D1E121A87EF2224BAF582E5F093
:1003400034012224C6F582E5F034012225E025E0BF
:1003500024DDF582E43401F58322EDF0CBEFCBEB25
:10036000D394032275F024A424BEF582E43402F56C
:10037000832275F024A42433F582E43402F5832229
:1003800025E025E02409F582E43402F58322FFEE1E
:100390009CFEF0A3EFF0229003C4E0FFA3E0FD2257
:1003A000A42497F582E5F03400F583E58222E0FC91
:1003B000A3E0FD75F08822C39BFBEE9AFAED99F954
:1003C000EC98F822E0FF9003B8E0FEEFC8EEC80812
:1003D00022F582E43402F58322940AEE648094804C
:1003E00022902EC6F0902EC57401F0229001D07498
:1003F00002F09003B6F02275F004121B56021B198E
:10040000ECF0A3EDF09003C4E0229003B7E004F019
:1004100022ECF0A3EDF09003B6E0229001D0E0FFD3
:1004200075F002A4229003C4EFF0A3EDF09003C88E
:100430007403F0ED70037402F09003C4E0FF121037
:10044000F8F583C083C0829003C5E0FED082D083DC
:1004500012106612130F9003C612138E122E2AC3A7
:1004600012126040030215191210D6C083C0829088
:1004700003C5E0FCD082D083121081121316121033
:10048000E6EC1210811212901213D940241210DEE1
:10049000C083C0829003C5E0FCD082D0831210815B
:1004A000E4F0A3F0ED1210F8121191E475F0018060
:1004B0002B12132150299003C4E0FF1210E3C083D4
:1004C000C0829003C5E0FED082D083121081E4F098
:1004D000A3F01210F712107E74FFF5F0121ADC125E
:1004E000126D12104E12126D122BA812126D1229DB
:1004F000B8EF70030216459003C5E0FF9003C4E017
:10050000FE1212431210C9E4F0EF60030216451206
:100510001282F583E4F00216459003C5E0703EA315
:10052000E0FEA3E0FF122E2A9003C8E02402FDE4BF
:1005300033FCD3EF9DEC6480F8EE648098400912A0
:10054000123A1210C97401F012167ED312126040D2
:100550002C9003C4E075F088121286801B12167E60
:100560009003C8E0FDD3121265401212123AF583CF
:10057000E5822FF582E43583F5837401F01210D6FD
:10058000C083C0829003C5E0FCD082D0831210816A
:100590001213161210E61211931212909464EE6464
:1005A00080948040231210DEC083C0829003C5E097
:1005B000FCD082D0831210811212E7ED1210FB12D0
:1005C0001191E475F0018031C3EF949CEE64809446
:1005D0007F50299003C4E0FF1210E3C083C08290D3
:1005E00003C5E0FED082D083121081E4F0A3F012A4
:1005F00010F712107E74FFF5F0121ADCC39003C6D8
:10060000E064809480503212126D122B6F12126DC2
:10061000122968EF60299003C41211CBC083C082F5
:100620009003C5E0FED082D0831210811210F21226
:10063000107EECF0A3EDF0800612126D12104E1237
:10064000126D122DDA9003C4E0FF1210F8F583C08A
:1006500083C0829003C5E0FED082D083121066E092
:10066000FEA3E09003C412116FC083C0829003C543
:10067000E0D082D083121081EEF0A3EFF02290033D
:10068000C6E0FEA3E0FF122E2A229003C4EFF0A3DF
:10069000EDF09003C87407F0ED603F90008EE064C9
:1006A00001700280089003C51212C8702D12119AB1
:1006B000C083C0829003C5E0FED082D08312106652
:1006C000121400121211C083C0829003C5E0D082C0
:1006D000D083121081E4F0A3F0229003C41211CB56
:1006E000C083C0829003C5E0FED082D08312108107
:1006F00075F08812127BA42422F582E5F0340012F2
:10070000107E12130FFFEE9CFE9003C6F0A3EFF0D5
:10071000122E2A9003C8E0FDC3121265400302178F
:10072000E41210B3E06401703775F088EE121179AD
:10073000EF121194E0FEA3E0C3941EEE6480948057
:10074000400302182A12119AC083C0829003C5E0A8
:10075000FED082D083121066ECF0A3EDF002182ACE
:100760009003C6E0FEA3E0FF12120CC083C082908B
:1007700003C5E0FCD082D083121081EE8FF0121AF4
:10078000DCED1211851212901213D9402912120CAD
:10079000C083C0829003C5E0FCD082D08312108158
:1007A0001212E7EDA42434F582E5F0340012119121
:1007B000E475F0018028121321506F9003C4E0FF0C
:1007C000121211C083C0829003C5E0FED082D08394
:1007D000121081E4F0A3F012107174FFF5F0121AF8
:1007E000DC02182A12119AC083C0829003C5E0FE71
:1007F000D082D083121066121400FF121176C083CB
:10080000C0829003C5E0FED082D083121081E0FC4C
:10081000A3E0C3941EEC64809480400E75F088EFD2
:100820001213A02E1210CE7401F01210B3E0640166
:1008300070281212521210C9E0041212511210C97B
:10084000E0D3940540149003C5E0FF75F088EE12E4
:1008500010C01212501210C9E4F022CBEFCB1211CB
:10086000FCE0FEA3E0FF121150E0FCA3E0FDC39FFB
:10087000EC9E500302190AE42DFFEC3404FE121121
:10088000FCE0FCA3E0FDC3EF9DFFEE9CFE12112CEB
:10089000EEF0A3EFF01211FCE0FEA3E0FF12115006
:1008A000E0FCA3E0C39FFFEC9E1210A2EEF0A3EFCA
:1008B000F01212BBE493FE740193FF1210A3E0FC4C
:1008C000A3E0FDD39FEC9E40241212BBE493FE7480
:1008D0000193FFC3ED9FFFEC9EC313FEEF13FF12C6
:1008E00012BB7401932FFFE4933EFE80131210A3FA
:1008F000E0FEA3E0FF7C007D63121A750D121A87DB
:100900001210A3EEF0A3EFF08038121150E0FEA316
:10091000E0FF1211FCE0FCA3E0C39FEC9EC3940433
:1009200075F002EB50101210A7E4F012112A7404B3
:10093000F0A3E4F0800C1210A7E4F012112AE4F006
:10094000A3F0EB640170571210A312129094B8EE4A
:1009500094014008121087EEF0A3EFF01210A3E00C
:10096000FCA3E090033A121124121290940EEE941C
:10097000064019EF24F2FFEE34F912132B240EFF78
:10098000EE3406FE12112CEEF0A3EFF012112CE063
:10099000FCA3E0FDEC541F90033EF0EDA3F0EB64EC
:1009A0000270571210A312129094B8EE94014008EE
:1009B000121087EEF0A3EFF01210A3E0FCA3E0907A
:1009C000033C12112412129094FAEE94054019EF90
:1009D0002406FFEE34FA12132B24FAFFEE3405FE40
:1009E00012112CEEF0A3EFF012112CE0FCA3E0FDAD
:1009F000EC541F900340F0EDA3F022BB0106898266
:100A00008A83E0225002E722BBFE02E32289828A27
:100A100083E49322BB010CE58229F582E5833AF554
:100A200083E0225006E92582F8E622BBFE06E9258E
:100A300082F8E222E58229F582E5833AF583E493A0
:100A400022BB010689828A83F0225002F722BBFE74
:100A500001F322F8BB010DE58229F582E5833AF521
:100A600083E8F0225006E92582C8F622BBFE05E99C
:100A70002582C8F222EF8DF0A4A8F0CF8CF0A42834
:100A8000CE8DF0A42EFE22BC000BBE0029EF8DF00F
:100A900084FFADF022E4CCF875F008EF2FFFEE33C1
:100AA000FEEC33FCEE9DEC984005FCEE9DFE0FD570
:100AB000F0E9E4CEFD22EDF8F5F0EE8420D21CFE44
:100AC000ADF075F008EF2FFFED33FD4007985006AD
:100AD000D5F0F222C398FD0FD5F0EA22C5F0F8A3B5
:100AE000E028F0C5F0F8E582158270021583E03841
:100AF000F022A3F8E0C5F025F0F0E582158270023F
:100B00001583E0C838F0E822EB9FF5F0EA9E42F04A
:100B1000E99D42F0E89C45F022ECF0A3EDF0A3EE55
:100B2000F0A3EFF022A8828583F0D083D082121B3D
:100B30003C121B3C121B3C121B3CE473E493A3C508
:100B400083C5F0C583C8C582C8F0A3C583C5F0C5F9
:100B500083C8C582C822A42582F582E5F03583F5D5
:100B60008322EF4E6012EF60010EEDBB010B898214
:100B70008A83F0A3DFFCDEFA2289F05007F709DF51
:100B8000FCA9F022BBFEFCF309DFFCA9F022E490F3
:100B900003B7F09003B7E0FFC394094003021D17A9
:100BA000EF902EC87014E0545FF0A3746AF0902E9A
:100BB000C3744AF0A37401F08012E044F0F0A3740F
:100BC0002AF0902EC374A0F0A3740AF09003B7E04B
:100BD00090219793902ECAF0E49003B6F090000312
:100BE000E0FF9003B6E0FEC39F4003021D0E7415A4
:100BF0002E1213D1E0FF9003B8F0E4F5E2EFC394B6
:100C000008503A74151213E1C083C0821213C480D5
:100C100002C333D8FCD082D083F0902ECD7401F083
:100C2000C083C082E0FFC8EEC8088002C333D8FC8E
:100C3000D082D083F0902EC074C1F0805D9003B854
:100C4000E024F8F074161213E1C083C0821213C4BA
:100C50008002C333D8FCD082D083F0902ECE7401B2
:100C6000F0C083C082E0FFC8EEC8088002C333D85A
:100C7000FCD082D083F0EEB40506902EC97429F022
:100C8000EEB40606902EC97421F0EEB40706902E3D
:100C9000C97422F0902EC074C2F0E4FF900000747A
:100CA0002EF0A3E4F09003B6E024151213D1E090E7
:100CB00003B8F0E5E220E2050FEFB4C8DF9003B817
:100CC000E0FD75F002A4FFAEF0900001E02FF0907F
:100CD0000000E03EF0ED9021C693FF900000E47527
:100CE000F002121AF285F082F5831213AEEF1211A0
:100CF000A2C083C0829003B7E0D082D0831210815B
:100D0000ECF0A3EDF09003B6E004F0021BDD9003DD
:100D1000B7E004F0021B939001CC7401F022900321
:100D2000C4EFF0A3EDF09003C87407F0ED70037406
:100D300004F090008EE06401700280089003C512F8
:100D400012C870381211C8C083C0829003C5E0FE7B
:100D5000D082D0831210811210F212107EECF0A318
:100D6000EDF09003C4121175C083C0829003C5E0FA
:100D7000D082D083121081E4F0A3F0229003C4E06B
:100D8000FF1210F8F583C083C0829003C5E0FED047
:100D900082D08312106612130F9003C612138E12A4
:100DA0002E2A9003C8E0FDC31212654003021E3BC9
:100DB0009003C6E0FEA3E0FF9003C41210E1C083DD
:100DC000C0829003C5E0FCD082D083121081121340
:100DD000161210E61211931212901213D940269097
:100DE00003C41210E1C083C0829003C5E0FCD0822E
:100DF000D0831210811212E7ED1210FB121191E450
:100E000075F001802B12132150299003C4E0FF12CA
:100E100010E3C083C0829003C5E0FED082D083126D
:100E20001081E4F0A3F01210F712107E74FFF5F0B9
:100E3000121ADC12139712104E8038C39003C6E0CA
:100E400064809480502D121397122B6F12139712F7
:100E50002968EF601E1211C8C083C0829003C5E0EC
:100E6000FED082D0831210811210F212107EECF0AC
:100E7000A3EDF09003C4E0FF1210F8F583C083C027
:100E8000829003C5E0FED082D083121066E0FEA3FC
:100E9000E09003C412116FC083C0829003C5E0D0FC
:100EA00082D083121081EEF0A3EFF0229001D2E005
:100EB00024FE601B146021147003021F8D24036044
:100EC0000302202B9001D27402F0E4900205F0128C
:100ED00026C49001D27403F0121B8E9001CCE070F6
:100EE00003021F6B900205E004F0E49003B5F0905C
:100EF0000003E0FF9003B5E0C39F506FE4FF900351
:100F0000B5E0FE12119F75F002EF121B561213AEE0
:100F1000EE1210FBF58375F002EF121B561212E071
:100F2000EFB409DA9003B5E0FF1210A4E4F0A3F0E7
:100F3000EF12112D7404F0A3E4F0EFB40110E4906B
:100F4000033AF0A3F090033E7404F0E4A3F0EFB48E
:100F50000210E490033CF0A3F09003407404F0E42A
:100F6000A3F09003B5E004F0021EEF900205E0C389
:100F70009403500302202B900002747EF0E4900151
:100F8000CDF0900205F09001D27404F022121B8E75
:100F90009001CCE0700302202B12202CE49003B5CA
:100FA000F0900003E0FE9003B5E0FFC39E501612E0
:100FB0002B33122AA29003B5E0FF12185B9003B501
:100FC000E004F080DC122C501223E0122CB59001CA
:100FD000D2EFF064047054900002E0FFD39410400C
:100FE00015EF647E7045900330E04408F0900205F0
:100FF000E06038E4802A900330E054F0F090000282
:10100000E0B40107900330E04401F0900002E0B446
:101010000207900330E04402F0900205E0700C04F7
:10102000F0C28A000000000000D28A22E49003B7D8
:10103000F09003B7E0FDC394095023E0FF75F00280
:101040001211A2E0FAA3E0FB75F002EF1211D0EA50
:10105000F0A3EBF0E4FF12142512140A80D3E490FD
:1010600003B6F0900003E0FF9003B6E0C39F400397
:101070000221911212ADE4F0A3F0EF1212EFE4F0AE
:10108000A3F0EF700302216CE49003B7F09003B774
:10109000E0FDC3940950189003B6E0FF12168A9041
:1010A00003B6E0FFA3E0FD121D1E12140A80DEE469
:1010B0009003B7F09003B7E0FFC394094003022107
:1010C0006C748E2F1212CB60109003B6E075F0880E
:1010D000121286F583E0B401239003B6E0FF1211EB
:1010E000761213AEEF121179C083C0829003B7E07D
:1010F000D082D083121081ECF0A3EDF09003B7E022
:1011000060649003B6E0FF1210F8F583C083C082DC
:101110009003B7E0FED082D08312108112127B12AE
:1011200012EFEC8DF0121ADC9003B6E0FF75F08838
:10113000A42458F582E5F0340012107E1210F2F566
:1011400083C083C0829003B7E0D082D08312108125
:10115000E0FEA3E02DFFEE3CFE9003B6E01212AFDE
:10116000EE8FF0121ADC12140A0220B49003B612A9
:1011700012AD12127B121151121411FF1212EFE074
:10118000FCA3E012116812120112141104F00220E3
:1011900063E49001CCF0223F3F3F3F3F3F3F3F3F62
:1011A0000032003217707530001E0032000A000F46
:1011B0000064000A000A00000000000000000000B7
:1011C0000000000101010D0E0F03040506070809C8
:1011D0000A0B0C00010200370037003700370037D8
:1011E0000037003700370037003700370037003747
:1011F00000370037003700500050005000500050BA
:10120000005000500050005000500050005000505E
:10121000005000500050001E001E001E001E001E48
:10122000001E001E001E001E001E001E001E001ECE
:10123000001E001E001E002D002D002D002D002D73
:10124000002D002D002D002D002D002D002D002D36
:10125000002D002D002D006E006E006E006E006EE1
:10126000006E006E006E006E006E006E006E006E0E
:10127000006E006E006E0087008700870087008781
:101280000087008700870087008700870087008726
:101290000087008700870055005500550055005510
:1012A0000055005500550055005500550055005596
:1012B000005500550055002D002D002D002D002D4E
:1012C000002D002D002D002D002D002D002D002DB6
:1012D000002D002D002D00FA00FA00FA00FA00FAA5
:1012E00000FA00FA00FA00FA00FA00FA00FA00FA2E
:1012F00000FA00FA00FAC0E0C083C082C0D0E8C0A3
:10130000E0E9C0E0EAC0E0EBC0E0EFC0E0D2AFE56A
:10131000DB30E415E5DB30E102802890032FE5DFC8
:10132000F09003B0E4F00223C5E5DB30E508122EAF
:101330003690032C802BE5DB30E119E5DB20E00360
:101340000223C59003B2122BE4122BFD121A14F5DE
:10135000DF0223C59003B0E0700DA3E5DFF090033A
:10136000B07401F00223C59003B1E09027D793FF3A
:10137000B4FF0E90032FE5DFF09003B1E004F0809E
:101380003EEF640F9003B2702B122BE49003B1E098
:10139000FF122C11540F121A419003B2122BE49039
:1013A00003B1E0FF04F0122C11FFE5DF54F04F12FF
:1013B0001A41800B122BE4122BFDE5DF121A539019
:1013C000032EE004F075DBFFD0E0FFD0E0FBD0E0BF
:1013D000FAD0E0F9D0E0F8D0D0D082D083D0E0329B
:1013E000900002E0FFC394105023A3E0FEEFC39EE1
:1013F000501B900002E075F002A412134312127603
:101400001210A712130FEE9C40030224C19001CFCB
:10141000747EF09003B6F09001CEE0FA70311212B3
:10142000FB40061213EC02249212141B24C0F58216
:10143000E5F034011212761210A712130FEE9C4041
:10144000727F01122D6C9001CE7401F00224B3EA78
:10145000640170441212FB400E1213EC7F01122E35
:101460000F9001CE7402F07F01122C83EF60449044
:1014700001C2E0FEA3E0FFC3900019E09F900018B6
:10148000E09E400D9003B67401F09001CE04F08010
:1014900022E49001CEF0801B12141B12133A121298
:1014A000761210A712130FEE9C40089001D0E09026
:1014B00003B6F09003B6E0FF9001CFE06F6002EF5B
:1014C000F022900343E0FE6410704EFF900003E0B2
:1014D000FDEFC39D4003022569EF25E02476F582E8
:1014E000E434221211601211E92456F582E4342208
:1014F00012116012133A1211F12496F582E434228B
:101500001211601213431211F124B6F582E4342251
:101510001211601212D60224CCEE6420705DFF908E
:101520000003E0FEEFC39E5040EF25E024F6F58275
:10153000E434211211601211E924D6F582E4342139
:1015400012116012133A1211F12416F582E43422BA
:101550001211601213431211F12436F582E4342281
:101560001211601212D602251F9001BCA3E0900355
:1015700034F09001BEA3E0900335F022E49003B76D
:10158000F0FF9003B6F0EF14601E14603514604C49
:1015900014605B240470749003B87401F0A3742F7A
:1015A000F0A37458F0022605122BE1900001121AE4
:1015B00014FED3941F4003122C0A1219FB6E704BB9
:1015C0008043122BE1900002121A14FED3940640BD
:1015D00003122C0A1219FB6E70318029122BE19034
:1015E0000003121A14FE1219FB6E701F8017122BC3
:1015F000E1900004121A14FE648B6003122C0A128C
:1016000019FB6E70069003B6E004F00FEF640560FE
:10161000030225869003B6E0B40504A37401F0909C
:1016200003B7E0FD6007900344E0547FF0CFEDCFB7
:1016300022758A50538AEF9003CE7411F09003CC38
:101640007422F09003CF7433F075997F759A80E41B
:10165000FFFEC29620970AD296309705E49003CEFB
:10166000F00FBF00010EEF640A4E70E675993F75EA
:101670009AC0E4FEFF2097069003CC7427F02096D2
:101680000C9003CC7426F02097037428F00FBF0051
:10169000010EEF640A4E70DDE4F5AD75AEF075AF86
:1016A00009F5AC7589FF75913F75991FF59675938E
:1016B0001FF59BF595F592F59A75800CD28A9003EB
:1016C000CD04F0227E017FCD7D007B017A0079047C
:1016D000121B621228B99003437410F01224C2E462
:1016E000FE900003E0FFEEC39F505CE4FC75F088C1
:1016F000EE1210E61211931212E7EE121246F58363
:10170000E5822C1210CEE4F0EE1211851212E7EEF3
:101710001213A02C1210CE121250F583E5822C1257
:1017200010CEE4F0CFEECFCDECCD12104E122DDA6C
:101730000CEC640970B7CFEECF122E0F121282F5A7
:1017400083E4F00E0226E19001CF747EF090000257
:10175000F0E49001CEF022022C1AE493A3F8E49373
:10176000A34003F68001F208DFF48029E493A3F894
:101770005407240CC8C333C4540F4420C883400406
:10178000F456800146F6DFE4800B010204081020C5
:101790004080902D02E47E019360BCA3FF543F3053
:1017A000E509541FFEE493A360010ECF54C025E069
:1017B00060A840B8E493A3FAE493A3F8E493A3C821
:1017C000C582C8CAC583CAF0A3C8C582C8CAC583B2
:1017D000CADFE9DEE780BE0FFFFF00000000000067
:1017E00000FFFFFFFFFFFFFFFFFF00000000000002
:1017F00000000000000000000000000000000000E9
:1018000000000000000000000000000000000000D8
:1018100000000000000000000000000000000000C8
:1018200000000000000000000000000000000000B8
:1018300000000000000000000000000000000000A8
:101840000000000000000000000000000000000098
:1018500000000000000000902EC0E4F0902ECB7439
:10186000F7F0902F58E0540F24F0902EC8F0902EEF
:10187000CC7448F0902EC97429F0A3743FF0902ED8
:101880004074811211DCF0A3F0A3041211DC740285
:10189000F0A37481F0902EC67414F0902EC1749051
:1018A000F0A37401F0A374A0F0A3740AF043E31052
:1018B000122D28900003EFF0227E007F807D007BB8
:1018C000017A037930121B629003307408F09003A0
:1018D000327403F090034274ABF09003447489F0C7
:1018E0009003CEE0900336F09003CCE0900337F005
:1018F0009003CFE0900338F012257C90032DE06038
:10190000089003317404F08005E4900331F0022A5A
:1019100057C0E0C0F0C083C082C0D0E8C0E0ECC0D7
:10192000E0EDC0E0EEC0E0EFC0E0D2AF9001D1E06A
:1019300004F0C3940A4017E4F01211162401FFE4E6
:101940003EFEE43DFDE43CFC90029F121B19D0E0FA
:10195000FFD0E0FED0E0FDD0E0FCD0E0F8D0D0D069
:1019600082D083D0F0D0E0329003CAEDF09003C96A
:10197000EFF0A3E0FE121220F583E5822E1210CEC6
:10198000E060329003C9E0121364C083C082900308
:10199000CAE0D082D0831211059021AA1211AE4064
:1019A000149003CAE0FF9003C9E01212211210C97B
:1019B000E4F07F01227F00229003CAEDF09003C97A
:1019C000EFF0A3E0FE12122DF583E5822E1210CE69
:1019D000E060329003C9E0121372C083C0829003AA
:1019E000CAE0D082D0831211059021AC1211AE4012
:1019F000149003CAE0FF9003C9E012122E1210C91E
:101A0000E4F07F01227F00229003B57410F0A3E47C
:101A1000F0A3743FF0A374FFF0E4FDFCF99003B56C
:101A2000E0FEA3E02DF582EE3CF583E493FF69F937
:101A30000DBD00010CBC2FE5BDFFE29003B7E0FE39
:101A4000A3E0F5828E83E49369700690032D04F081
:101A500022E490032DF0229001C2A3E0900388F0CD
:101A60009001C4A3E0900389F09001BCA3E090032F
:101A70008AF09001BEA3E090038BF09001C8A3E030
:101A800090038CF09001CAA3E090038DF09022D8CF
:101A900074019390038EF09022DA74019390038F77
:101AA000F0229003CDE06044900006E0FEA3E0FF4A
:101AB000C39470EE941750069003CF7426F0C39031
:101AC0000009E09470900008E0941750129003CF42
:101AD0007427F0C3EF9470EE941750037428F0E469
:101AE0009003CDF09003CFE0900338F0229003B63E
:101AF000EFF0C3940A5039E0FF24D312129AE06049
:101B00002FEF12134C12110B1213B79003B6E025EE
:101B1000E024A0F582E43421F5831211BA400E903E
:101B200003B6E024D312129AE4F07F01227F002250
:101B30007F0022CBEFCBEB6401701712113CE090D9
:101B40000380F0121150A3E0900381F0ECA3F0EDBC
:101B5000A3F0EB6402701712113CE0900384F012C2
:101B60001150A3E0900385F0ECA3F0EDA3F02290D8
:101B700003C912135A50309003C9E0FFEB1212212F
:101B80001210C9E07021EB1212211210C97401F079
:101B9000121116FFEB121364C083C0829003C9E0D8
:101BA000D082D0831213F7229003C912135A5030F7
:101BB0009003C9E0FFEB12122E1210C9E07021EB66
:101BC00012122E1210C97401F0121116FFEB12132B
:101BD00072C083C0829003C9E0D082D0831213F711
:101BE000229003B8E0FBA3E0FAA3E0F922E4F5DADF
:101BF00075DA4043DA2075D74075DA58229003B180
:101C0000E0FF04F08F82758300229003B77401F027
:101C100022E92FF9E43AFA0219FB752001122A0889
:101C200053A87F122631122E1E122DEE122DA6431E
:101C3000A880122D89EF24E0600A2410700AC28364
:101C4000C2828004D283D2821224C2121EAC80E2ED
:101C5000E4FFFE900003E0FDEEC39D5020EF121064
:101C6000A4E0FCA3E0FD75F002EE1210A7E0FAA3D9
:101C7000E0D39DEA9C4003CFEECF0E80D69001D0FA
:101C8000EFF0229003B7EFF0E0FF24061212A5E078
:101C90006020EF12138012110B1213B79021AE12B5
:101CA00011BA400E9003B7E024061212A5E4F07FAB
:101CB00001227F00229001CFE0248F601C24F3706A
:101CC0000512101E80139001CFE0FF122CDC7F0361
:101CD000122AEDEF60037F02227F0422CAEFCAEAD4
:101CE000C39410501C900002E06A60157F01122E10
:101CF000007F03122D4B900002EAF09001CD740199
:101D0000F022410205004101D1004103B00041032E
:101D1000B10042032A000041032C0041032E004180
:101D2000032D0041032F1000902EC5E4F0902ECD1E
:101D3000F0A3F0FFFEEE9021B693600974152F1208
:101D400013D1EEF00F0EEEB410EB22CBEFCBEBD3B2
:101D5000940A5017121297E070111212977401F042
:101D6000121116FFEB12134C121B192212135C50A6
:101D7000171212A2E070111212A27401F0121116C1
:101D8000FFEB121380121B1922E4FD90032CE0607C
:101D900011900330E0FE54F0FDEE540FF0E4900398
:101DA0002CF0CFEDCF229003B27401F0A37403F0B6
:101DB000A37430F0122BED43A90875B80875F80824
:101DC0002290029F121B25000000007E007F0A7DEA
:101DD000007B017A0179D3021B62EFD39403500D8B
:101DE00012122DF583E5822D1210CEE4F02275B289
:101DF0008E75B6F9E4F5B743B20143AA01022DC1CD
:101E0000EFD3940A500874D32F12129AE4F022EF01
:101E1000D39403500874062F1212A5E4F02212285E
:101E2000579001D27401F00226C4EE30E707C3E4F4
:101E30009FFFE49EFE22122BED2200000000000016
:101E40000000000000000000000000000000000092
:101E50000000000000000000000000000000000082
:101E60000000000000000000000000000000000072
:101E70000000000000000000000000000000000062
:102FF000000000000000000000000000000000933E
:00000001FF
